{"abi":[{"type":"constructor","inputs":[{"name":"entranceFee","type":"uint256","internalType":"uint256"}],"stateMutability":"nonpayable"},{"type":"function","name":"enterRaffle","inputs":[],"outputs":[],"stateMutability":"payable"},{"type":"function","name":"getEntranceFee","inputs":[],"outputs":[{"name":"","type":"uint256","internalType":"uint256"}],"stateMutability":"view"},{"type":"function","name":"pickWinner","inputs":[],"outputs":[],"stateMutability":"nonpayable"}],"bytecode":{"object":"0x60a0604052348015600e575f5ffd5b506040516101ab3803806101ab8339818101604052810190602e9190606d565b8060808181525050506093565b5f5ffd5b5f819050919050565b604f81603f565b81146058575f5ffd5b50565b5f815190506067816048565b92915050565b5f60208284031215607f57607e603b565b5b5f608a84828501605b565b91505092915050565b6080516101016100aa5f395f607601526101015ff3fe608060405260043610602f575f3560e01c806309bc33a71460335780632cfcc5391460585780635d495aea146060575b5f5ffd5b348015603d575f5ffd5b5060446073565b604051604f919060b4565b60405180910390f35b605e609a565b005b348015606a575f5ffd5b506071609c565b005b5f7f0000000000000000000000000000000000000000000000000000000000000000905090565b565b565b5f819050919050565b60ae81609e565b82525050565b5f60208201905060c55f83018460a7565b9291505056fea264697066735822122010d09e3908a5efd623dbc63df7374ba80a574a54d0e397e942b7cfc72874491164736f6c634300081d0033","linkReferences":{}},"methodIdentifiers":{"enterRaffle()":"2cfcc539","getEntranceFee()":"09bc33a7","pickWinner()":"5d495aea"},"id":0}